{
  "contractName": "SimpleStorage",
  "abi": [
    {
      "constant": false,
      "inputs": [
        {
          "name": "x",
          "type": "uint256"
        }
      ],
      "name": "set",
      "outputs": [],
      "payable": false,
      "stateMutability": "nonpayable",
      "type": "function"
    },
    {
      "constant": true,
      "inputs": [],
      "name": "get",
      "outputs": [
        {
          "name": "",
          "type": "uint256"
        }
      ],
      "payable": false,
      "stateMutability": "view",
      "type": "function"
    }
  ],
  "bytecode": "0x608060405234801561001057600080fd5b5060e68061001f6000396000f3fe6080604052600436106043576000357c01000000000000000000000000000000000000000000000000000000009004806360fe47b11460485780636d4ce63c14607f575b600080fd5b348015605357600080fd5b50607d60048036036020811015606857600080fd5b810190808035906020019092919050505060a7565b005b348015608a57600080fd5b50609160b1565b6040518082815260200191505060405180910390f35b8060008190555050565b6000805490509056fea165627a7a723058208f4aff5dce3839d791f8b7d689cc2e35b642c962df4100e544fd6b0cdc104e910029",
  "source": "pragma solidity 0.5.1;\n\ncontract SimpleStorage {\n  uint storedData;\n\n  function set(uint x) public {\n    storedData = x;\n  }\n\n  function get() public view returns (uint) {\n    return storedData;\n  }\n}\n",
  "sourcePath": "/Users/brendon.cloyd/Development/DAPPS/remittance/contracts/SimpleStorage.sol",
  "compiler": {
    "name": "solc",
    "version": "0.5.1+commit.c8a2cb62.Emscripten.clang"
  },
  "schemaVersion": "2.0.1",
  "updatedAt": "2018-12-19T22:52:43.271Z"
}